:0400000010EF00F00D
:100020003F01CD6B3F01BD6B3A01706B3F01BD6B72
:10003000F80EC56F0001000E226F6F00A3FFD8FFFE
:100040003C0E006FFB0E216F26EF00F0016F0A0ED1
:10005000026B022A015EFDE20126020601C070F079
:1000600002C001F0026B022A015EFDE201260206D7
:1000700001C071F002C072F00065216D0F0E206F9B
:1000800042EF00F0016F0A0E026B022A015EFDE2F0
:100090000126020601C060F002C001F0026B022AD4
:1000A000015EFDE20126020601C061F002C062F0BD
:1000B000215CD8B86CEF00F0D8B464EF00F0D8B091
:1000C00074EF00F06CEF00F0000E226F000E6F0076
:1000D000A3FFCDFF7CEF00F0010E226F020E6F0038
:1000E000A3FFCDFF7CEF00F0020E226F040E6F0025
:0800F000A3FFCDFF7CEF00F03F
:020000040030CA
:0A000000F8FFFFFF9FFFFFFFFFFF67
:00000001FF
