:0400000010EF00F00D
:100020003F01CD6B3F01BD6B3A01706B3F01BD6B72
:10003000F80EC56F000E226F6F00A3FFD8FF3C0EB5
:10004000006FFB0E216F25EF00F0016F0A0E026BAF
:10005000022A015EFDE20126020601C070F002C024
:1000600001F0026B022A015EFDE20126020601C0D8
:1000700071F002C072F00065216D0F0E206F41EF2C
:1000800000F0016F0A0E026B022A015EFDE20126FA
:10009000020601C060F002C001F0026B022A015E9C
:1000A000FDE20126020601C061F002C062F0215C9F
:1000B000D8B86BEF00F0D8B463EF00F0D8B073EFAE
:1000C00000F06BEF00F0000E226F000E6F00A3FF38
:1000D000CDFF7BEF00F0010E226F020E6F00A3FF39
:1000E000CDFF7BEF00F0020E226F040E6F00A3FF26
:0600F000CDFF7BEF00F0E4
:020000040030CA
:0A000000F8FFFFFF9FFFFFFFFFFF67
:00000001FF
