:0400000010EF00F00D
:10002000000E226F6F00A3FFD8FF6F00A3FFCDFF6C
:100030006F00A3FF70FAF80EC56F3C0E006FFB0E49
:10004000216F23EF00F0016F0A0E026B022A015E9E
:10005000FDE20126020601C070F002C001F0026B51
:10006000022A015EFDE20126020601C071F002C013
:1000700072F00065216D0F0E206F3FEF00F0016FF1
:100080000A0E026B022A015EFDE20126020601C091
:1000900060F002C001F0026B022A015EFDE201265F
:1000A000020601C061F002C062F0215CD8B869EFBD
:1000B00000F0D8B461EF00F0D8B071EF00F069EF54
:1000C00000F0000E226F000E6F00A3FFCDFF79EF4E
:1000D00000F0010E226F020E6F00A3FFCDFF79EF3B
:1000E00000F0020E226F040E6F00A3FFCDFF79EF28
:0200F00000F01E
:020000040030CA
:0A000000F8FFFFFF9FFFFFFFFFFF67
:00000001FF
