:0400000010EF00F00D
:100020003F01CD6B3F01BD6B3A01706B3F01BD6B72
:10003000F80EC56F0001000E226F3C0E006F320EED
:10004000216F23EF00F0016F0A0E026B022A015E9E
:10005000FDE20126020601C070F002C001F0026B51
:10006000022A015EFDE20126020601C071F002C013
:1000700072F00065216D0A0E206F3FEF00F0016FF6
:100080000A0E026B022A015EFDE20126020601C091
:1000900060F002C001F0026B022A015EFDE201265F
:1000A000020601C061F002C062F0000E6F00A3FF03
:1000B000D8FF0A0E215CD8B86EEF00F0D8B466EF16
:1000C00000F0D8B076EF00F06EEF00F0000E226F77
:1000D000000E6F00A3FFCDFF7EEF00F0010E226F38
:1000E000020E6F00A3FFCDFF7EEF00F0020E226F25
:0C00F000040E6F00A3FFCDFF7EEF00F0B8
:020000040030CA
:0A000000F8FFFFFF9FFFFFFFFFFF67
:00000001FF
